S01700004A757374446F49745F43414E5F76342E73726563BD
S21440000000094020ED014000E9014000E9014000C0
S214400010E9014000E9014000E9014000000000001D
S214400020000000000000000000000000E901400061
S214400030E901400000000000E9014000E9014000FD
S214400040E9014000E9014000E9014000E9014000C3
S214400050E9014000E9014000E9014000E9014000B3
S214400060E901400000000000E9014000E9014000CD
S214400070E9014000E9014000E9014000E901400093
S214400080E9014000E9014000E9014000E901400083
S214400090E9014000E9014000E9014000E901400073
S2144000A0E9014000E9014000E9014000E901400063
S2144000B0E9014000E9014000E9014000E901400053
S2144000C0E9014000E9014000E9014000650F4000B9
S2144000D0E9014000790F4000E9014000E901400095
S2144000E0E9014000E9014000E9014000E901400023
S2144000F0E9014000E9014000E9014000E901400013
S214400100E9014000E9014000E9014000E901400002
S214400110E9014000E9014000000000000000000046
S214400120E9014000E9014000E9014000E9014000E2
S214400130E9014000E9014000E9014000E9014000D2
S214400140E9014000E9014000E9014000E9014000C2
S214400150E9014000E9014000E9014000E9014000B2
S214400160E9014000E901400010B5054C237833B959
S214400170044B13B10448AFF300800123237010BD35
S2144001808C00402000000000982640000C4B43B1F5
S2144001900C480D4910B5AFF300800C48036823B9EE
S2144001A010BD0A48036833B97047094B002BF7D097
S2144001B0BDE810401847064B002BF5D0184700BF47
S2144001C000000000982640009000402098264000FE
S2144001D00000000008B5024B9847024B984708BD00
S2144001E0D103400065144000FEE7000008B5104B00
S2144001F0104A9A4209D00E4B0E4A03E01168196025
S214400200043304320C498B42F8D30C4B02E00022F4
S2144002101A6004330A4A9342F9D30A4A0A4B23F037
S2144002207F039360094B9847094B9847FEE700BF0A
S21440023000004020982640008C0040208C00402043
S214400240FC02402000ED00E0000040008514400025
S214400250FD12400008B50248024B984708BD00BF53
S21440026010E000E0C50740000A4B1A6F22F020025B
S2144002701A675A6F42F020025A6720225A601A6F55
S21440028022F040021A675A6F42F040025A674022F4
S2144002905A607047000E0E40044B9B6913F4807FF3
S2144002A003D14FF48072014B1A61704700060E402E
S2144002B008B5064B9847064B9847024605490648F8
S2144002C0064B9847064B984708BD00BF990240002A
S2144002D0F9124000000A0E4044014020290940001F
S2144002E069024000054BD3F8083113F0080F03D1DC
S2144002F00822024BC3F80021704700BF00060E409C
S2144003000A4B1A6F22F008021A675A6F22F0080248
S2144003105A6708225A601A6F22F004021A675A6F08
S21440032022F004025A6704225A60704700100E40BA
S21440033008B5044B9847044B984704490448054B76
S214400340984708BDE5024000010340000000034016
S2144003501C01402069064000054BD3F8083113F0D5
S214400360200F03D12022024BC3F80021704700BF64
S21440037000060E400B4B1A6F22F480521A675A6FD3
S21440038042F480525A674FF480525A601A6F22F4F1
S21440039080421A675A6F42F480425A674FF480424E
S2144003A05A60704700120E4008B5044B9847044BFD
S2144003B0984704490448054B984708BD59034000F0
S2144003C0750340000040034050014020690640004D
S2144003D008B5114B9847114B9B6913F4006F03D136
S2144003E04FF400620D4B1A610D4A536843F40043C4
S2144003F053600C4B01225A631A611A6002225A63F8
S2144004001A611A60084B9847084B9847084B98471C
S214400410084B984708BD00BFF509400000060E404F
S21440042050180E4000100E4055024000B1024000E9
S21440043031034000A90340007047704710B596B09E
S21440044002AB149312A9064B984714980178427849
S2144004508378C07800900348034CA04716B010BD80
S214400460E106400008254000F514400010B596B05F
S21440047002AB149312A9064B984714980178427819
S2144004808378C07800900348034CA04716B010BD50
S214400490E10640002C254000F51440002DE9F041CF
S2144004A088B0274A13788DF8043003F132018DF86E
S2144004B0051003F164018DF80610A3F16A018DF86A
S2144004C007100133137040F25A43049300258DF809
S2144004D0145001AB069304238DF81C308DF81D5044
S2144004E0184C194A01212046184FB8472046184B49
S2144004F0984704A92046DFF86C80C047154B049304
S21440050001268DF81D6004A92046C047124A294698
S2144005102046B84740F269430293039502AB2A4609
S214400520294620460D4FB8470D4B0293039502AB24
S214400530324631462046B84708B0BDE8F08100BF95
S214400540A80040201C0140203904400041074000DC
S214400550B9064000A50000103D0440009107400049
S21440056096000010110740002DE9F04188B0264A59
S21440057053788DF80430591D8DF8051003F10A01A3
S2144005808DF8061003F10F018DF8071001335370F4
S21440059040F25A43049300258DF8145001AB06935D
S2144005A004238DF81C308DF81D50184C184A012134
S2144005B02046184FB8472046174B984704A9204670
S2144005C0DFF86880C047154B049301268DF81D6000
S2144005D004A92046C047124A29462046B84740F25A
S2144005E069430293039502AB2A46294620460D4F9F
S2144005F0B8470D4B0293039502AB32463146204630
S214400600B84708B0BDE8F081A8004020500140201F
S2144006103B04400041074000B9064000A5000010DA
S2144006206D044000910740009600001011074000FE
S214400630EFF31083036072B6BFF35F8F7047BFF36C
S2144006405F8F036883F31088704708B5C36903B1AA
S214400650984708BD08B5036A03B1984708BD08B572
S214400660436A03B1984708BD38B504460D4600288E
S21440067018BF002914BF0120002041220849094B19
S214400680984729462046084B9847034628B9074AC4
S2144006906260074AA260074AE260184638BD00BF5B
S2144006A0602540009D094000BD0A40004B064000C2
S2144006B0550640005F06400010B504465C220549DA
S2144006C0003018BF0120044B98472046034B9847FC
S2144006D010BD00BF602540009D094000950C4000BD
S2144006E038B504460D46002818BF002914BF01201F
S2144006F000206E220349044B984729462046034B68
S214400700984738BD602540009D094000A50C400034
S21440071038B504460D46002818BF002914BF0120EE
S214400720002077220349044B984729462046034B2E
S214400730984738BD602540009D094000710D400037
S21440074070B50C461646054681220E49003018BF45
S21440075001200D4B9847012C0FD024B1022C0ED00F
S2144007606FF00C0070BD2E62321C18BF012221466D
S2144007702846064B9847002070BDEE61F4E76E624F
S214400780F2E700BF602540009D094000A50E4000EE
S214400790F8B50D4616461F460446B82206490030B0
S2144007A018BF0120054B98473B463246294620460F
S2144007B0034CA047F8BD00BF602540009D0940009F
S2144007C0E90E400008B5024B1860024B984708BD3A
S2144007D0AC0040207910400010B5044B1C68044B18
S2144007E0984701462046034B984710BDAC00402032
S2144007F0E10940008510400070B5164604460D4697
S214400800002818BF002914BF0120002034220449C4
S214400810044B98472368324629462046984770BD81
S2144008207C2540009D09400070B5164604460D469E
S214400830002818BF002914BF012000203D2204498B
S214400840044B98476368324629462046984770BD11
S2144008507C2540009D094000F8B5164605460F46E3
S214400860002818BF002902D00ABB002000E0002064
S214400870F1221049104B984705F1080420460F4BCB
S21440088098470028F8D00025795D20460C4B9847BD
S21440089020460A4B98470028FAD00135B542F3D394
S2144008A02046084B98470028FAD02846F8BD012035
S2144008B0DEE700BF902540009D09400081124000C1
S2144008C039124000A91240002DE9F041174605466E
S2144008D08846002818BF002902D0D2B9002000E080
S2144008E000204FF486720C490C4B9847002605F1C1
S2144008F0080420460A4B98470028F8D02046094B63
S214400900984708F806000136BE42F0D33046BDE8A8
S214400910F0810120E5E700BF902540009D0940009A
S214400920D11240005D12400038B504460D460028FE
S21440093018BF002914BF0120002034220749084B65
S2144009409847294604F10800064B9847034618B9CD
S214400950054A6260054A2260184638BD9025400028
S2144009609D094000CD114000C9084000590840008C
S21440097010B5044653220649003018BF0120054BE7
S214400980984704F10800044B9847002010BD00BF6C
S214400990902540009D0940000512400000B900BE69
S2144009A0704700000346064A126822B1044A10689F
S2144009B00344136070470349014A1160F6E700BFDD
S2144009C0B0004020000940204FF0FF3070474FF401
S2144009D000534B600020704701207047002070474E
S2144009E04FF4967303FB00F04FF47A7303FB00F06A
S2144009F07047000000B583B001A80E4B98470E4ADA
S214400A00D2F8883043F47003C2F88830BFF34F8F73
S214400A10BFF36F8F01A8094B9847094A136823F420
S214400A20706343F4C0631360064B984703B05DF8A9
S214400A3004FB00BF3106400000ED00E03F064000EA
S214400A40000C0E404910400038B5054603681C6D42
S214400A5014F0010F1AD114F4007F1AD114F0007F5D
S214400A601BD114F0807F1DD114F4000F08D0EB6822
S214400A702A68526C12F0200F19D002212846984757
S214400A8014F0080F15D12B681C6538BD836898474D
S214400A90E1E76B6828469847E0E7EB68032128467D
S214400AA09847DEE7EB68002128469847DCE70121B7
S214400AB0E4E7EB68042128469847E4E730B4016051
S214400AC08B6943F001038B6103689A6912F0010F4A
S214400AD0FAD09A6942F002029A61624B994214D067
S214400AE0614B994266D00268936923F00203936192
S214400AF00268936923F00103936103689B6913F0CE
S214400B00010FFAD1002030BC7047584B8361026811
S214400B10936943F4004393610368554ADA61036876
S214400B2040F63312DA60036840F60B329A64046883
S214400B30504B514A92B21343C4F8A0300368002485
S214400B40C3F8BC400368C3F8C84002684B4B9BB22E
S214400B5043F0C063C2F8C0300568494A93B243F4D4
S214400B600033C5F8F03003682B25C3F8805005687D
S214400B7002F110039BB243F40033C5F88430056895
S214400B8002F118039BB243F40033C5F8883003687B
S214400B90C3F8904090623B4B0822C3F88420BFF3D2
S214400BA04F8FBFF36F8FC3F884215A6003680122CA
S214400BB0DA6595E7344B83610268936943F40043F2
S214400BC0936103682A4ADA61036840F63312DA60B2
S214400BD0036840F60B329A640168264B2B4A92B261
S214400BE01343C1F8A03003680022C3F8BC20036852
S214400BF0C3F8C8200168264B9BB243F0C063C1F8D7
S214400C00C03004681E4901F12C039BB243F4003304
S214400C10C4F8F03003682B24C3F88040046801F120
S214400C203C039BB243F40033C4F88430046801F1BB
S214400C3044039BB243F40033C4F888300368C3F8D7
S214400C40902048650F4B2022C3F88420BFF34F8F77
S214400C50BFF36F8FC3F884215A6003680122DA65B8
S214400C6041E700BF00000340004003400000402032
S214400C70070A0206000006807801402098024020BD
S214400C80B400402000E100E014004020380240203C
S214400C90D80140200268936923F001039361002045
S214400CA0704700000368D3F8A42012F07F0F4DD0A1
S214400CB0F0B585B0D3F8A460C6F30526264A93421D
S214400CC032D00024254A934232D0002C41D02368AB
S214400CD013F0804F30D100234B732368C3F38A430D
S214400CE00B60236813F0005F2DD10D4607461C4B62
S214400CF00FCB0DF1100E0EE90F006368C3F30343EC
S214400D00734413F8102C2A7304F10801A868154B95
S214400D1098473A68D2F8A83023F03F031E43C2F8FB
S214400D20A860002005B0F0BD0F4C04EB0614C9E7E0
S214400D300E4C04EB0614C8E701234B732368C3F339
S214400D401C030B60CDE701230B71CEE76FF0090063
S214400D5070476FF01B00E5E700000340004003408B
S214400D60AC254000CD144000780140203802402099
S214400D7038B50268D2F8C43013F4001F40F08280C1
S214400D80D2F8C450C5F30445414B9A4234D00023B0
S214400D90404CA24234D0002B77D04A7B012A33D035
S214400DA00A6892041A600A7B082A34D85C6862F3A0
S214400DB013445C60044602689269C2F30022586895
S214400DC062F35550586022689269C2F340225868D0
S214400DD062F3145058600A7B896803F108002E4B72
S214400DE098472168D1F8C420C2F3044201239340B7
S214400DF0C1F8D030002038BD284B03EB0513C7E7B9
S214400E00274B03EB0513C6E70A681A601A6842F0D8
S214400E1080421A60C7E70C2A05D85A68092464F34A
S214400E2013425A60C6E7102A05D85A680A2464F363
S214400E3013425A60BEE7142A05D85A680B2464F356
S214400E4013425A60B6E7182A05D85A680C2464F349
S214400E5013425A60AEE7202A05D85A680D2464F338
S214400E6013425A60A6E7302A05D85A680E2464F31F
S214400E7013425A609EE7402A9CD85A6842F4702231
S214400E805A6097E76FF01B0038BD6FF01B0038BD07
S214400E900000034000400340CD144000980240202C
S214400EA0D801402021B1012909D0022914D0704729
S214400EB001684B6D23F001031A434A657047016889
S214400EC04B6D23F4007343EA42224A6503684FF0B1
S214400ED0FF32C3F8E02070470268536D23F4FF7377
S214400EE09B059B0D5365E2E770B48469E06824690E
S214400EF004EBC105F2B9D3B15A6840F821201A680C
S214400F0050F8213062F31A4340F8213050F821302F
S214400F10022262F39F7340F8213050F821300122BC
S214400F2062F3DD6340F82130002070BC704740F823
S214400F302130F9E7012AF7D18BB11A6844F83120FD
S214400F4054F83120012060F35F7244F831205B682A
S214400F506B606B68022262F39F736B60E4E744F851
S214400F603130E1E708B5024B986A024B984708BD16
S214400F70B4004020490A400008B5024B586D024B69
S214400F80984708BDB4004020490A40000E490A6A06
S214400F9022F002020D4B13430B620B4B9B6E13F079
S214400FA0010FFAD0084B196A094A0A431A62996A2D
S214400FB0084A0A409A62084A9A62034B9B6E13F0AC
S214400FC0020FFAD0704700BF00060E40013E3700C1
S214400FD000003701FFFF00F8013F1820114A136B4D
S214400FE023F0700313630F4B9B6E13F0080FFAD079
S214400FF00C4A136B23F4407343F480731363094B1A
S2144010009B6E13F0080FFAD0064A136B23F00303C7
S21440101043F002031363034B9B6E13F0080FFAD0A2
S214401020704700BF00060E400122064B5A65054B2E
S2144010309B6E13F4005FFAD04FF40052014B1A60D7
S214401040704700BF00060E4008B5034B9847034B59
S2144010509847034B984708BD8D0F4000DD0F400072
S21440106029104000034B6FF07F425A6005221A60F9
S214401070704700BF10E000E008B5014B984708BD38
S21440108065104000080E0DE00D4B6FF07F40586035
S21440109098600B4B1B6813F4803FFAD001F17F41F8
S2144010A001311046431EDAB20028EDD1044B596098
S2144010B09960034B1B6813F4803FFAD0704700BF1B
S2144010C010E000E010B5044640F219221249003004
S2144010D018BF0120114B9847114B9C4213D003F583
S2144010E000739C4211D003F580539C420FD003F509
S2144010F000739C420DD003F500739C4201D0FF2044
S21440110010BD042010BD002010BD012010BD0220DF
S21440111010BD032010BD00BFC82540009D094000FB
S21440112000080E4010B504464FF427720E490030B2
S21440113018BF01200D4B984720460D4B984700237B
S21440114043B140F2A62208490020084B98470023A6
S214401150184610BD03EB43018A0006498A5C90425C
S214401160F6D00133DBB2EBE7C82540009D094000CE
S214401170C5104000BC25400010B5044640F2B322DE
S2144011800D49003018BF01200C4B984720460C4BA9
S21440119098470C4BC4F8E430AC2323604FF480737C
S2144011A0236000EB40008200074B13445B6863609B
S2144011B051232362002010BDC82540009D094000F1
S2144011C02511400000524155BC254000F8B50C465C
S2144011D0094E0746A9223146003018BF0120074D68
S2144011E0A847AA223146201C18BF0120A8473C60C9
S2144011F02046034B9847F8BDC82540009D0940004F
S2144012007911400070B50A4E0446F222314600304D
S21440121018BF0120074DA847246840F2D722314620
S214401220201C18BF0120A8475023236070BD00BF74
S214401230C82540009D09400038B50C46054640F29A
S21440124095120449003018BF0120034B98472B687D
S214401250DC6138BDC82540009D09400010B50446F5
S21440126040F2A7120449003018BF0120034B9847AC
S21440127023689869C0B210BDC82540009D0940004B
S21440128010B504464FF4D8720549003018BF012007
S214401290044B984723685869C0F3400010BD00BF10
S2144012A0C82540009D09400010B5044640F2B912DA
S2144012B00549003018BF0120044B984723685869F9
S2144012C0C0F3402010BD00BFC82540009D09400027
S2144012D010B5044640F2CB120549003018BF012035
S2144012E0044B98472368586900F0010010BD00BFC2
S2144012F0C82540009D0940000020704700B587B0D3
S214401300204B9847204B9847204B984740F25A43EB
S214401310019300238DF8083005AA039204228DF825
S21440132010208DF8113001A919481A4DA8474FF4DE
S2144013307A70194EB047194C23788DF8143003F163
S21440134032028DF8152003F164028DF816206A3BB0
S2144013508DF817304FF47A70B04701A91048A84767
S21440136023788DF814305A1D8DF8152003F10A02A3
S2144013708DF8162003F10F028DF8172001332370E5
S214401380D1E700BFD5014000690540009D044000FC
S2144013901C01402011074000D90740000C014020A6
S2144013A05001402058B908B50B4611461846054B23
S2144013B09847002800DB08BD4FF0FF3008BD4FF0CF
S2144013C0FF3070471D144000013802280BD808B57E
S2144013D00B4611461846054B9847002800DB08BDCB
S2144013E04FF0FF3008BD4FF0FF30704741144000CB
S2144013F070B50646064D2B6800219868054CA047F8
S2144014002B6800215868A047034B1E6070BD00BF84
S21440141028004020251540001001402008B5064B06
S2144014201B6833B10A46014692B21846034B9847AA
S21440143008BD002008BD00BF10014020290840001C
S21440144008B5064B1B6833B10A46014692B21846A9
S214401450034B984708BD002008BD00BF1001402040
S214401460F907400010B5044C2046044B98472046E8
S214401470034B984710BD00BF44014020710940000F
S214401480F113400070B50D4E0D4CA41BA410002562
S214401490A54209D10B4E0C4C01F0EEF8A41BA4104B
S2144014A00025A54205D170BD56F825309847013530
S2144014B0EEE756F8253098470135F2E78426400097
S2144014C084264000842640008826400010B5431EEF
S2144014D00A44914200D110BD11F8014B03F8014F68
S2144014E0F7E702440346934200D1704703F8011BD6
S2144014F0F9E700000FB40A4B13B51C6824B1A36982
S21440150013B9204600F076FA05AB049AA168019319
S214401510204600F039FC02B0BDE8104004B07047E9
S2144015202800402000294FF480630CBF022200228E
S21440153000F000B82DE9F7431D46514B1E6804469F
S2144015400F46904626B1B36913B9304600F052FABA
S2144015504C4B9C4252D17468B8F1020F06D0B8F199
S214401560010F00F28980002DC0F286802146304669
S21440157000F0D6F9616B41B104F14403994202D0C0
S214401580304600F02DFB002363630023A3616360B5
S214401590A3891B0603D52169304600F021FBA389A9
S2144015A023F44A6323F00303B8F1020FA3815DD00E
S2144015B001AB6A462146304600F0A6FAA389184396
S2144015C0A0812DBB009D284600F002FB0746002860
S2144015D04ED1DDF80090A9453CD14FF0FF30A389AD
S2144015E043F00203A3810023A36004F14703236072
S2144015F023610123636103B0BDE8F083224B9C4224
S21440160001D1B468A8E7214B9C4208BFF468A3E721
S214401610002FD8D0B36913B9304600F0EBF9B8F1D3
S214401620010F08BFA389276004BF43F00103A381CD
S214401630A389276113F0080065611BD013F00100F1
S21440164018BF6D424FF000031DBFA360A56118464A
S214401650A560D0E7484600F0BBFA07460028BCD055
S214401660A38943F08003A3814D46D3E70020B6E725
S214401670A946F5E7A060BEE74FF0FF30BBE700BFE6
S214401680280040200426400024264000E425400050
S214401690F8B50E461446054618B183690BB900F0F6
S2144016A0A9F9214B9C422AD16C68A369A360A389FF
S2144016B01A072ED5236963B323692068C01A636965
S2144016C0F6B29842374604DB2146284600F028F911
S2144016D028BBA368013BA36023685A1C22601E7087
S2144016E063690130984204D0A389DB0719D50A2ED6
S2144016F017D12146284600F013F990B10FE00B4B66
S2144017009C4201D1AC68D0E7094B9C4208BFEC68CC
S214401710CBE72146284600F00DF80028CCD04FF005
S214401720FF373846F8BD00BF042640002426400058
S214401730E4254000324B70B51D6806460C4625B180
S214401740AB6913B9284600F055F92E4B9C420FD191
S2144017506C68B4F90C309AB215072CD4D00611D464
S2144017600922326043F04003A3814FF0FF3070BD42
S214401770254B9C4201D1AC68EBE7244B9C4208BF0A
S214401780EC68E6E7510712D5616B41B104F14403BA
S214401790994202D0304600F023FA00236363A389BF
S2144017A023F02403A3810023636023692360A38975
S2144017B043F00803A38123694BB9A38903F420733C
S2144017C0B3F5007F03D02146304600F0C1F9A28928
S2144017D012F001030CD00023A36063695B42A3614F
S2144017E0236953B9B4F90C3013F08000BAD170BDF8
S2144017F0920758BF6369A360F2E70020F7E700BF8F
S214401800280040200426400024264000E4254000CE
S2144018108A892DE9F041054610070C465AD44B6894
S214401820002B05DC0B6C002B02DC0020BDE8F081B1
S214401830E66A002EF9D0002312F480522F682B60FF
S21440184033D0606DA3895A0705D56368C01A636BA9
S2144018500BB1236CC01A00230246E66A216A28466A
S214401860B047431CA38906D129681D294BD82B4A6B
S214401870CA40D60747D500226260D9042269226052
S21440188004D5421C01D12B6803B96065616B2F609B
S2144018900029CAD004F14403994202D0284600F0F9
S2144018A09FF900206063BDE8F081216A0123284645
S2144018B0B047411CC6D12B68002BC3D01D2B01D08E
S2144018C0162B01D12F60B0E7A38943F04003A381D4
S2144018D0BDE8F0810F69002FA7D093070E6808BFB8
S2144018E04B690F6018BF0023A6EB07088B60B8F162
S2144018F0000F9ADD43463A46216AA66A2846B04714
S214401900002807DCA38943F04003A3814FF0FF3053
S214401910BDE8F0810744A8EB0008E8E70100402056
S21440192038B50B6905460C46DBB118B183690BB96F
S21440193000F060F80C4B9C4209D16C68B4F90C304E
S2144019407BB121462846BDE83840FFF761BF074BCC
S2144019509C4201D1AC68F1E7054B9C4208BFEC685D
S214401960ECE7002038BD00BF042640002426400097
S214401970E4254000014900F0A9B800BF2119400005
S214401980002310B50446036043608360818143664C
S214401990C281036143618361194608225C30FFF7C8
S2144019A0A0FD054B6362054BA362054BE362054B06
S2144019B02462236310BD00BF012340002323400060
S2144019C05B2340007F23400070B54A1E6825554380
S2144019D00E4605F1740100F051F9044640B100216D
S2144019E080E842000C30A06005F16802FFF779FD00
S2144019F0204670BD836910B5044633BB8364C36418
S214401A000365124B124A1B688262984204BF012348
S214401A10836100F01FF86060204600F01BF8A0606D
S214401A20204600F017F80022E06004216068FFF7C7
S214401A30A7FF01220921A068FFF7A2FF0222122178
S214401A40E068FFF79DFF0123A36110BDE02540003D
S214401A5075194000F8B51C4B1E68B369074613B9A4
S214401A603046FFF7C7FF4836B4687368013B03D576
S214401A70336833B13668F7E7B4F90C506DB1683463
S214401A80F4E704213846FFF79FFF30600028F1D185
S214401A900C233B6004462046F8BD4FF6FF73E381B7
S214401AA00123A38165662560A56065602561656143
S214401AB0A5610822294604F15C00FFF712FD656324
S214401AC0A563A564E564E6E7E02540002DE9F84314
S214401AD08046894600F14804002614B93046BDE8E1
S214401AE0F883A5686768013F01D52468F5E7AB89A8
S214401AF0012B07D9B5F90E30013303D029464046AD
S214401B00C84706436835EEE770B50E46B1F90E1085
S214401B10002990B014461D4607DA00232B60B3898F
S214401B201A0610D44FF480630EE001AA00F04EFC73
S214401B300028F2DB029A02F47042A2F500535A42A1
S214401B405A412A60EEE740230020236010B070BD63
S214401B508B8973B59D0706460C4607D504F14703A7
S214401B60236023610123636102B070BD01AB6A4606
S214401B70FFF7CAFF00990546304600F07FF848B99F
S214401B80B4F90C309A05EFD423F0030343F0020374
S214401B90A381E3E70D4BB362A389206043F0800343
S214401BA0A381009B6361019B20615BB1B4F90E1079
S214401BB0304600F01DFC28B1A38923F0030343F010
S214401BC00103A381A3891D43A581CDE77519400074
S214401BD0024B0146186800F051B800BF280040206C
S214401BE038B50546002945D051F8043C0C1F002B5B
S214401BF0B8BFE41800F074FC1F4A1368104633B9A7
S214401C00636014602846BDE8384000F06ABCA342D2
S214401C100CD921686218934204BF1A685B686360F7
S214401C2004BF521822600460ECE713465A680AB1B3
S214401C30A242FAD919685818A0420BD1206801442C
S214401C40581882421960DDD1106852685A600144C3
S214401C501960D7E702D90C232B60D3E720682118F8
S214401C608A4204BF11685268626004BF0918216046
S214401C705C60C7E738BD00BF1401402070B5CD1C7E
S214401C8025F0030508350C2D38BF0C25002D0646DB
S214401C9001DBA94203D90C233360002070BD00F05D
S214401CA01FFC234A1468214691B9224C23681BB96D
S214401CB0304600F015FB20602946304600F010FB09
S214401CC0431C26D10C233360304600F00AFCE4E780
S214401CD00B685B1B1AD40B2B0FD90B60CD50CC185E
S214401CE0304600F0FEFB04F10B00231D20F00700F9
S214401CF0C31A1BD05A42E25070BD8C420DBF636877
S214401D004B686360136018BF0C46E9E70C464968A9
S214401D10CAE7C41C24F00304A04205D0211A30466A
S214401D2000F0DEFA0130CDD02560D9E770BD00BFA7
S214401D3014014020180140209368013B002B10B44A
S214401D40936008DA9469A34202DBCBB20A2B02D135
S214401D5010BCFFF79DBC1368581C10601970C8B2C1
S214401D6010BC7047F8B506460F461446D518AC4228
S214401D7001D1002007E03A4614F8011B3046FFF731
S214401D80DBFF431CF3D1F8BD2DE9F04F9DB00C4668
S214401D9017460393064618B183690BB9FFF72AFE28
S214401DA07C4B9C4257D17468A38918075DD523693C
S214401DB0002B5AD00023099320238DF82930302356
S214401DC08DF82A304FF0010BB846454615F8013BD2
S214401DD0002B55D1B8EB070A0BD053463A4621465E
S214401DE03046FFF7BFFF013000F0C480099B5344E4
S214401DF0099398F80030002B00F0BC8000234FF089
S214401E00FF3204930793059206938DF853301A9346
S214401E1005222978604800F013FB05F10108049B71
S214401E20002831D1D90644BF20228DF853201A0706
S214401E3044BF2B228DF853202A782A2A2CD0079A82
S214401E4000210A20A846013598F80030303B092B7F
S214401E506DD971B326E0514B9C4201D1B468A3E7DB
S214401E604F4B9C4208BFF4689EE721463046FFF73A
S214401E7061FC00289ED04FF0FF301DB0BDE8F08FCB
S214401E80252BA7D0A846A0E7434A801A0BFA00F0B5
S214401E90184304904546BBE7039A111D1268039108
S214401EA0002A01DB079204E0524243F00203079205
S214401EB0049398F800302E2B10D198F801302A2B36
S214401EC008F1010137D1039B1A1D1B680392002BB2
S214401ED0B8BF4FF0FF3308F102080593314D98F82C
S214401EE000100322284600F0ABFA40B14023401BC6
S214401EF003FA00F0049B0343049308F1010898F8A2
S214401F00001029488DF82810062208F1010700F035
S214401F1097FA002834D0254B03BB039B073323F0A6
S214401F20070308330393099B4B4409934CE700FB94
S214401F300232012186E70023059318460A25884683
S214401F40013198F80020303A092A03D9002BC5D031
S214401F500590C3E705FB00200123F0E703AB0093A1
S214401F602246134B04A93046AFF30080B0F1FF3F42
S214401F708146D8D1A3895B063FF57DAF09987CE7BB
S214401F8003AB009322460A4B04A9304600F088F87B
S214401F90ECE700BF042640004426400024264000CC
S214401FA0E42540004A2640004E264000000000003F
S214401FB0651D40002DE9F04791461F468A680B692B
S214401FC0DDF820809342B8BF1346C9F8003091F838
S214401FD0432006460C4612B10133C9F80030236848
S214401FE0990642BFD9F800300233C9F80030256858
S214401FF015F0060507D104F1190AE368D9F8002060
S2144020009B1A9D4229DB94F843302268003318BF60
S214402010012392062ED404F1430239463046C04787
S214402020013021D02368E568D9F8002003F0060384
S214402030042B08BFAD1AA36822690CBF25EAE575D4
S21440204000259342C4BF9B1AED184FF000091A347E
S2144020504D451BD10020BDE8F08701235246394646
S2144020603046C047013003D14FF0FF30BDE8F0871F
S2144020700135C2E7E1185A1C302081F8430022445B
S21440208094F8451082F843100233C4E701232246F1
S21440209039463046C0470130E6D009F10109D7E756
S2144020A02DE9F04317460A7E85B06E2A98460646C6
S2144020B00C460C9B01F1430E00F0BC801AD8632AF4
S2144020C02ED00AD8002A00F0C880582A00F08A800D
S2144020D004F1420584F842202AE0642A01D0692AA5
S2144020E0F6D121681A6811F0800F23D0111D1960AF
S2144020F0136827E0732A00F0B48008D86F2A2AD0E5
S214402100702AE5D10A6842F020020A6003E0752A88
S21440211021D0782ADCD1782284F845206E4964E0C4
S2144021201A6801F14205111D1960136884F842309F
S2144021300123A3E011F0400F02F104011960D7D04B
S214402140B2F90030002B03DA2D225B4284F843209C
S21440215062490A2217E02068196810F0800F03D001
S214402160081D18600B6806E010F0400F01F10400EF
S2144021701860F7D00B8859496F2A14BF0A220822E4
S214402180002084F843006568A560002DC0F29C805E
S214402190206820F004002060002B3FD1002D40F046
S2144021A095807546082A0BD12368DA0708D5236937
S2144021B062689A42DEBF302305F8013C05F1FF35E0
S2144021C0AEEB05032361CDF800803B4603AA2146CB
S2144021D03046FFF7EFFE013055D14FF0FF3005B0E7
S2144021E0BDE8F08381F845203C492268186812F023
S2144021F0800F00F104051D6001D0036802E055061B
S214402200FBD50388D00744BF42F0200222601BB9AA
S214402210226822F0200222601022B1E77546B3FB06
S214402220F2F002FB1033CB5C05F8013D0346002874
S214402230F5D1B7E708681A68496910F0800F04D0EE
S214402240101D18601368196007E010F0400F02F187
S214402250040018601368F6D0198000232361754681
S214402260B1E71A68111D1960156862680021284692
S21440227000F0E6F808B1401B606063682361002305
S21440228084F843309FE723692A4639463046C0479C
S2144022900130A2D023689B0707D5002504F1190911
S2144022A0E368039A9B1A9D4205DBE068039B9842CD
S2144022B0B8BF184693E701234A4639463046C047DA
S2144022C001308AD00135EBE7002BA7D10B7884F894
S2144022D0423004F1420565E7662640005526400038
S2144022E038B5064C0023054608462360FEF75AFBE1
S2144022F0431C02D1236803B12B6038BDF80240204E
S21440230010B50C46B1F90E1000F0ECF80028ABBF43
S214402310636DA3891B1823F48053ACBF6365A38108
S21440232010BD2DE9F0411F468B89DB0505460C465E
S214402330164605D502230022B1F90E1000F068F8C3
S214402340A389B4F90E1023F48053A38132463B464A
S2144023502846BDE8F04100F017B810B50C46B1F974
S2144023600E1000F055F8431CA38915BF606523F492
S214402370805343F48053A38118BFA38110BDB1F9A5
S2144023800E1000F013B8000038B5074C0546084656
S2144023901146002222601A46FFF716F8431C02D167
S2144023A0236803B12B6038BDF802402038B5064C90
S2144023B00023054608462360FEF706FB431C02D171
S2144023C0236803B12B6038BDF802402038B5074C6F
S2144023D000230546084611462360FEF7F8FA431CDC
S2144023E002D1236803B12B6038BD00BFF8024020FD
S2144023F038B5064C0023054608462360FEF7ECFA3F
S214402400431C02D1236803B12B6038BDF80240203C
S21440241038B5074C054608461146002222601A4643
S214402420FEF7DCFA431C02D1236803B12B6038BDAB
S214402430F8024020000000000000000000000000FD
S21440244001F0FF01102A2BDB10F0070F08D010F820
S214402450013B013A8B422DD010F0070F42B3F6D124
S214402460F0B441EA012141EA014122F007047FF03D
S21440247000070023F0E80256083C85EA010586EA94
S214402480010685FA47F5A3FA87F586FA47F6A5FAD0
S21440249087F68EB9EED1F0BC01F0FF0102F00702DC
S2144024A032B110F8013B013A83EA010313B1F8D187
S2144024B00020704701387047002D06BF3546033868
S2144024C0073815F0010F07D1013015F4807F02BFA1
S2144024D0013015F4C03F0130F0BC0138704700BFF2
S2144024E07047704738B5074C0546084611460022E7
S2144024F022601A46FEF756FF431C02D1236803B1FA
S2144025002B6038BDF80240204D65737361676520C7
S21440251072656365697665642043414E303A20258E
S214402520642025642025642025640A004D65737365
S2144025306167652072656365697665642043414ED0
S214402540313A2025642025642025642025640A002D
S21440255048656C6C6F20576F726C642100000000F9
S2144025602E2E2F68616C2F7372632F68616C5F63C9
S214402570616E5F6173796E632E6300002E2E2F6846
S214402580616C2F7372632F68616C5F696F2E630096
S2144025902E2E2F68616C2F7372632F68616C5F7587
S2144025A0736172745F73796E632E63000001020379
S2144025B004050607080C10141820304001000000DF
S2144025C000080000510000002E2E2F68706C2F75FA
S2144025D06172742F68706C5F756172742E63000050
S2144025E02C0040200000000000000000000000001A
S2144025F00000000000000000000000000000000096
S2144026000000000000000000000000000000000085
S2144026100000000000000000000000000000000075
S2144026200000000000000000000000000000000065
S2144026300000000000000000000000000000000055
S21440264000000000232D302B2000686C4C0065668F
S21440265067454647003031323334353637383941AE
S21440266042434445460030313233343536373839C4
S2144026706162636465660000F8B500BFF8BC08BCDC
S2144026809E4670478D014000F8B500BFF8BC08BCB8
S20C4026909E46704769014000B8
S2144026987801402098024020B4004020C4004020E2
S2144026A8CC00402038024020D8014020E00040209E
S2144026B8F0004020F80040202C0040200000000099
S2144026C80426400024264000E42540000000000080
S2144026D800000000000000000000000000000000AD
S2144026E8000000000000000000000000000000009D
S2144026F8000000000000000000000000000000008D
S214402708000000000000000000000000000000007C
S21040271800000000000000000000000070
S804400000BB
